:020000040800F2
:1000000000180020F5010008DD010008DF010008EC
:10001000E1010008E3010008E5010008000000001C
:10002000000000000000000000000000E7010008E0
:10003000E901000800000000EB010008ED010008E4
:100040003D0200083D0200083D0200083D02000894
:100050003D0200083D0200083D0200083D02000884
:100060003D0200083D0200083D0200083D02000874
:100070003D0200083D0200083D0200083D02000864
:100080003D0200083D0200083D0200083D02000854
:100090003D0200083D0200083D0200083D02000844
:1000A0003D0200083D0200083D0200083D02000834
:1000B0003D0200083D020008000000003D0200086B
:1000C0003D02000800000000000000003D020008A2
:1000D000000000003D0200083D0200080000000092
:1000E0003D0200083D0200083D020008000000003B
:1000F0000000000000000000000000000000000000
:0C01000000000000000000005FF808F1A3
:10010C0010B5054C237833B9044B13B10448AFF345
:10011C0000800123237010BD0C00002000000000A3
:10012C004808000808B5034B1BB103490348AFF35B
:10013C00008008BD000000001000002048080008E6
:10014C0000B591B02422002107A800F04BFB14222B
:10015C00002101A800F046FB022301210693102385
:10016C0006A8CDE90A1300F0DFF8014608B172B613
:10017C00FEE70F23CDE90300CDE90130059001A87E
:10018C0000F094FA08B172B6FEE711B05DF804FB0A
:10019C0008B5FFF7D5FF0C4A052493690B4843F0CB
:1001AC00040393613023A2F5843213604FF0E023F3
:1001BC0058611C611969C903FCD51969D16881F0B2
:1001CC000201D160F4E700BF00100240FF117A0079
:1001DC00FEE7FEE7FEE7FEE7FEE770477047704775
:1001EC0000F04CB870470000FFF7FCFF0B480C49BF
:1001FC000C4A002302E0D458C4500433C4188C4277
:10020C00F9D3094A094C002301E013600432A242DD
:10021C00FBD300F0EFFAFFF7BBFF704700000020A4
:10022C000C0000208C0800080C0000202C00002082
:10023C00FEE7000038B50E4B05461A784FF47A737A
:10024C00B3FBF2F30B4A1068B0FBF3F000F058F874
:10025C00044658B90F2D09D8024629464FF0FF30F5
:10026C0000F01EF82046044B1D6038BD0120FCE751
:10027C00040000200000002008000020034A044B6A
:10028C0011681B780B441360704700BF28000020D6
:10029C0004000020014B1868704700BF28000020A4
:1002AC00154B30B5DC68C4F30224C4F10703251DDB
:1002BC00042B28BF0423062D4FF0FF3594BF0024D8
:1002CC00033C05FA03F321EA0303A54022EA0502E5
:1002DC00A340002843EA0203ACBF00F16040074A88
:1002EC004FEA0313DBB2ABBF00F5614000F00F0027
:1002FC0080F80033135430BD00ED00E014ED00E045
:10030C000138B0F1807F0BD24FF0E023F021054A89
:10031C00586182F823100020072298611A617047F7
:10032C000120704700ED00E02DE9F341054638B39C
:10033C000368DB0710D42B689F075ED42B68190762
:10034C0000F195802B685A0700F1C180E8690028FC
:10035C0040F02C81002029E0904C636803F00C03E2
:10036C00042B07D0636803F00C03082B0AD16368D5
:10037C00DE0307D523689C03DDD56B68002BDAD12F
:10038C00012013E06B68B3F5803F12D1236843F46E
:10039C0080332360FFF77EFF064623689803CAD498
:1003AC00FFF778FF801B6428F7D9032002B0BDE863
:1003BC00F0819BB9236823F480332360236823F4F2
:1003CC0080232360FFF766FF064623689903B2D5A6
:1003DC00FFF760FF801B6428F7D9E6E7B3F5A02F81
:1003EC00236803D143F480232360CFE723F48033C5
:1003FC002360236823F48023CBE7684C636813F0F5
:10040C000C0F07D0636803F00C03082B10D1636842
:10041C00DA030DD423689B0702D52B69012BAFD1CE
:10042C0023686A6923F0F80343EAC203236085E773
:10043C002A695B4B6AB101221A60FFF72BFF064653
:10044C0023689F07ECD4FFF725FF801B0228F7D900
:10045C00ABE71A60FFF71EFF0646236898077FF587
:10046C006DAFFFF717FF801B0228F6D99DE7AA692D
:10047C004A4E4B4BE2B10122C3F88024FFF70AFF2E
:10048C000446736A9B070DD54FF4FA52454B1B6813
:10049C00B3FBF2F3019300BF019B5A1E0192002B98
:1004AC00F9D14FE7FFF7F6FE001B0228E9D97CE7EC
:1004BC00C3F88024FFF7EEFE0446736A9F077FF5AE
:1004CC0041AFFFF7E7FE001B0228F6D96DE7334C6E
:1004DC00E369D80024D40127E36943F08053E36136
:1004EC00E36903F080530093009B2F4E3368D905CA
:1004FC0018D5EB68012B26D1236A43F00103236244
:10050C00FFF7C8FE41F288380646236A9B073FD5A1
:10051C00002F3FF41BAFE36923F08053E36115E731
:10052C000027E2E7336843F480733360FFF7B2FED1
:10053C0080463368DA05DCD4FFF7ACFEA0EB08008C
:10054C006428F6D931E7ABB9236A41F2883823F035
:10055C0001032362236A23F004032362FFF79AFE4C
:10056C000646236A9807D3D5FFF794FE801B4045B7
:10057C00F7D91AE7052B236A03D143F0040323624E
:10058C00BAE723F001032362236A23F00403B6E7DE
:10059C00FFF780FE801B4045B7D906E700100240EC
:1005AC000000424200000020007000402A4C6368AA
:1005BC0003F00C03082B3ED00022284B02281A66AD
:1005CC002CD1FFF767FE06462368990120D42B6ACD
:1005DC00B3F5803F05D16268A96822F400320A4362
:1005EC006260696A62680B4322F47412134301223D
:1005FC0063601A4B1A66FFF74DFE054623689A0195
:10060C003FF5A8AEFFF746FE401B0228F6D9CCE614
:10061C00FFF740FE801B0228D6D9C6E6FFF73AFE4C
:10062C00054623689B017FF595AEFFF733FE401B13
:10063C000228F6D9B9E601283FF4B8AE63682A6AF5
:10064C0003F4803191427FF49BAE6A6A03F4701319
:10065C0093423FF47FAE93E600100240000042420A
:10066C000D4A536803F00C01082912D10B48C3F34F
:10067C008341DB03405C09D55368094AC3F340430B
:10068C005043084AD35CB0FBF3F07047064B584319
:10069C0070470348704700BF001002407008000804
:1006AC0000127A008008000800093D002DE9F04195
:1006BC000D46044610B90120BDE8F081444A136888
:1006CC0003F007038B4228D321688E0730D4CA0766
:1006DC0043D43F4A136803F00703AB4265D8226842
:1006EC003C4D12F0040F6CD1130706D56B682269D0
:1006FC0023F4605343EAC2036B60FFF7B1FF6B68EE
:10070C00354AC3F30313D35CD840344B1860344BD5
:10071C001868FFF78FFD0020CEE7136823F007035E
:10072C000B431360136803F007038B42C3D1CBE771
:10073C00284B11F0040F1EBF5A6842F4E0625A6055
:10074C00080742BF5A6842F460525A605A68A0685F
:10075C0022F0F00202435A60B9E762681D4E012A8A
:10076C0033681AD113F4003FA5D0736841F288386E
:10077C0023F0030313437360FFF78CFD0746736884
:10078C00626803F00C03B3EB820FA2D0FFF782FD7B
:10079C00C01B4045F3D903208EE7022A02D113F087
:1007AC00007FE1E713F0020FDEE7136823F0070385
:1007BC002B431360136803F00703AB427FF47BAF4A
:1007CC008DE76B68E16823F4E0630B436B608BE7A8
:1007DC0000200240001002406008000800000020C9
:1007EC000800002003460244934200D1704703F8EE
:1007FC00011BF9E770B500260C4D0D4C641BA410C1
:10080C00A64209D100F01AF800260A4D0A4C641BC6
:10081C00A410A64205D170BD55F8043B984701368B
:10082C00EEE755F8043B98470136F2E784080008D8
:10083C00840800088408000888080008F8B500BF80
:10084C00F8BC08BC9E467047F8B500BFF8BC08BCA5
:04085C009E467047FD
:100860000000000000000000010203040607080960
:1008700002030405060708090A0B0C0D0E0F1010E1
:040880000102000071
:040884003101000836
:040888000D01000856
:0C088C000024F400010000001000000037
:04000005080001F5F9
:00000001FF
